:020000040800F2
:1000000000280020F501000845020008450200080C
:1000100045020008450200084502000800000000F3
:100020000000000000000000000000004502000881
:1000300045020008000000004502000845020008D3
:100040004502000845020008450200084502000874
:100050004502000845020008450200084502000864
:100060004502000845020008450200084502000854
:100070004502000845020008450200084502000844
:100080004502000845020008450200084502000834
:100090004502000845020008450200084502000824
:1000A0004502000845020008450200084502000814
:1000B0004502000845020008450200084502000804
:1000C00045020008450200084502000845020008F4
:1000D00045020008450200084502000845020008E4
:1000E0004502000845020008000000004502000823
:1000F00045020008450200084502000845020008C4
:1001000045020008450200084502000845020008B3
:1001100045020008450200084502000845020008A3
:100120004502000845020008450200084502000893
:1001300010B5054C237833B9044B13B10448AFF321
:1001400000800123237010BD00000020000000008B
:100150009002000808B5034B1BB103490348AFF3F5
:10016000008008BD0000000004000020900200088C
:1001700080B483B000AF1C4B1B681B4A43F00403E0
:1001800013601A4B1B68194A23F470031360174B52
:100190001B68164A43F400131360154B1B68144A7E
:1001A00043F4005313600023FB8004E0FB889BB200
:1001B00001339BB2FB80FB889BB2B3F5FA7FF5D38A
:1001C0000B4B1B680A4A23F4005313600023FB8087
:1001D00004E0FB889BB201339BB2FB80FB889BB29F
:1001E000B3F5FA7FF5D3D8E71810024004080140B0
:1001F0000C0801400D488546AFF300800C480D49BE
:100200000D4A002302E0D458C4500433C4188C4271
:10021000F9D30A4A0A4C002301E013600432A242D7
:10022000FBD300F011F8FFF7A3FFFEE70028002042
:100230000000002000000020B002000800000020A4
:100240001C000020FEE7000070B500260C4D0D4C90
:10025000641BA410A64209D100F01AF800260A4D2A
:100260000A4C641BA410A64205D170BD55F8043B8E
:1002700098470136EEE755F8043B98470136F2E718
:10028000A8020008A8020008A8020008AC020008A2
:10029000F8B500BFF8BC08BC9E467047F8B500BF73
:0802A000F8BC08BC9E46704743
:0402A80055010008F4
:0402AC003101000814
:04000005080001F5F9
:00000001FF
